:020000040800F2
:10000000F87F01208501000895010008950100088E
:100010009501000895010008950100080000000006
:100020000000000000000000000000009501000832
:10003000950100080000000095010008492700080C
:100040009501000895010008950100089501000838
:100050009501000895010008950100089501000828
:100060009501000895010008950100089501000818
:100070009501000895010008950100089501000808
:1000800095010008950100089501000895010008F8
:1000900095010008950100089501000895010008E8
:1000A00095010008950100089501000895010008D8
:1000B00095010008950100089501000895010008C8
:1000C00095010008950100089501000895010008B8
:1000D00095010008950100089501000895010008A8
:1000E0009501000895010008950100089501000898
:1000F0009501000895010008950100089501000888
:100100009501000895010008950100089501000877
:100110009501000895010008950100089501000867
:100120009501000895010008950100089501000857
:100130009501000895010008950100089501000847
:100140009501000895010008950100089501000837
:100150009501000895010008950100089501000827
:100160009501000895010008950100089501000817
:100170009501000895010008950100089501000807
:1001800095010008DFF808D000F020F800F092B9DF
:10019000F87F0120FEE70000814230B515D002F063
:1001A0000304034622F00302D51AE84204D053F8B0
:1001B000045B41F8045BF7E701391A19934204D054
:1001C00013F8010B01F8010FF8E730BD284BD3F805
:1001D000882042F47002C3F888205A6922F402721F
:1001E0005A61244B1A6842F001021A601A6890079B
:1001F000FCD500229A601A6822F0A0621A601A6880
:1002000042F480321A601B4A13689903FCD51A4BDA
:100210001B68DBB2112B194B0CBF40F2036240F29A
:1002200003721A60134B164A5A601A6842F08072C1
:100230001A601A689201FCD549F202429A604FF4A2
:1002400080121A6300225A639A634FF080521A6434
:100250004FF480425A641A6822F001021A60094A77
:10026000012111601A6B42F07F021A63704700BFD0
:1002700000ED00E000380240002004E0003C0240B5
:100280000830400400380140012910B513D80C484B
:100290000C4B53F8213050F82110012010701944F4
:1002A0004FF6FF70994208D933F8024B8442F9D0D7
:1002B0000020107010BD092010BD002010BD00BF2F
:1002C000740B03087C0B0308012926D8144B53F840
:1002D000212002F17842930B032B88BF530C114A63
:1002E000116988BF04330029BCBF0F4951604FEA30
:1002F000C303BCBF01F18831516043F0020143F4F4
:10030000803343F00203116113611361054BDA6816
:10031000D203FCD44FF000421A610920704700BF9D
:100320007C0B0308003C02402301674573B5164669
:1003300000220C4601921D466BB101AA084B98475A
:1003400060B921462644023D8E4205D931F8023B70
:1003500025F8023FF8E7022002B070BD0920FBE754
:100360006D08000873B5164600220D4601921C4622
:10037000002B2CD001AA184B984750BB174B1A6979
:10038000002ABFBF164A5A6002F188325A602E44D2
:1003900040F201122946114D1A6123468E4210D9AE
:1003A00031F8022B1C88A24201D10233F6E721F872
:1003B000024CEA68D203FCD41A88A242F5D0082085
:1003C00003E0064B4FF000421A6102B070BD0220FC
:1003D000FBE70920F9E700BF6D080008003C024078
:1003E0002301674570B5244D86680446A847014639
:1003F0002046B047266AA8474FF0804142681F4D0B
:100400002046B0471E4B9847A668A847014620469D
:10041000B047266AA8471B4942682046B0471A4B96
:1004200098471A4BA568984701462046A847184B9D
:100430009847184BA568984701462046A847164B91
:100440009847164BA568984701462046A847144B85
:100450009847144BA568984701462046A847124B79
:100460009847124BA568984701462046A847104B6D
:10047000BDE87040184700BF45060008D50A0008CF
:10048000B507000804000040E50E000865100008EC
:100490001D140008291A0008811D0008E51E000827
:1004A0000D240008012C000895300008993A000836
:1004B00021420008F0B52F4B2F4D304C85B09847A6
:1004C00002A901A82E4B9847029901982D4B9847F5
:1004D0004FF4A06200232C492C48A047A847846908
:1004E0001A21A36820469847236A02221A2120462F
:1004F000984703AA23691A2120469847E3681A21DE
:1005000020469847039B224C012B0CBF214B224BCA
:1005100098470021A047214B9847214B0446984714
:10052000204B06469847204B074698473A460346D5
:10053000314620461D4CA047A84784692D21A36859
:1005400020469847236A02222D212046984703AA75
:1005500023692D2120469847E3682D21204698479E
:10056000039913484B1E59425941124B984700209A
:1005700005B0F0BD41240008D50A0008ED4A000886
:100580002D240008F95F0008C20A0308C70A0308FF
:1005900021600008993A0008012C0008F9070008BA
:1005A000D51400089D160008D1250008455E0008F6
:1005B000E50300088D68000810B51548435C00216C
:1005C000445C9C421ED11349C86C4B63103B012B09
:1005D0009FBF114C606840F400006060886840F084
:1005E000804088600B4908460C68A407FCD5012BA5
:1005F0009FBF09494B6823F400034B60C36C136031
:10060000002010BD01311029DAD1032010BD00BF38
:10061000260B0308002201400023014010207047F0
:100620000C2070470020704740F6FF707047002094
:100630007047002914BF042000207047B1FA81F0F0
:1006400040097047144B1548002230B55A60144ACF
:100650009A60144ADA60144ADA61144A1A61144A38
:100660001A62144A5A62144A9A62144ADA62144AA2
:100670009A61144A5A61144A0260144A42604FF067
:10068000804202610024002501221860C0E9024571
:100690004261836130BD00BFE808002018090020D6
:1006A000F9060008890700083D060008B90500089A
:1006B0002506000829060008210600081D06000876
:1006C0002F06000833060008CB0A0308E00A0308D7
:1006D000074A115C0023D05C814202D1054B585C73
:1006E00070470133102BF6D14FF0FF30704700BF39
:1006F000260B0308160B03082DE9F8431A4E1B4F6F
:1007000016F801E01A481B4ADFF87480DFF874908D
:1007100000244FF0010C335D9E451ED17B6C13F419
:1007200080630CD17D6C45F480657D644360D36249
:100730005360C2F808C0C2F80C80C2F81090BEF135
:100740000F0F0ADC08460C4B0C4C98470022012383
:100750001146A0470020BDE8F8830134102CDAD1FF
:100760000320BDE8F88300BF260B030800380240D1
:100770000023014000220140D1060008AD0D000811
:100780009224490292244912074B5B5C0F2B10B54F
:1007900007DC0846054B064C984700231A461946C5
:1007A000A047002010BD00BF260B0308D10600089B
:1007B000AD0D000870B5054E054D002421463046AC
:1007C0000134A847102CF9D170BD00BFE808002003
:1007D0008907000801230B70002070470020704734
:1007E000034808600349116002221A600020704724
:1007F0007C0B0308740B0308114B1248002230B520
:100800005A60114A9A60114ADA60114A1A61114A13
:100810005A61114A9A61114ADA61114A1A62114AFF
:100820000260114A42604FF000520261002400252C
:1008300001221860C0E902454261836130BD00BFFA
:100840005809002038090020D5070008DD070008F6
:100850002D03000865030008C9020008890200088A
:10086000E1070008CB0A0308360B030801F17741C2
:1008700001F57C010023B1F5802F13603CBF4FF4DC
:100880000033136010680028CCBF0020012070479F
:10089000014B53F821007047340C002010B5054B74
:1008A000054A064C03EBC101D1E900010023A04732
:1008B00010BD00BF380D0020007701002DFB02089D
:1008C000402070472DE9F74F02AD012001F00F08DD
:1008D00045F8080D8A464FEA880909F00C011446CC
:1008E00000FA08F60F224FEA2A192846344B4FEA3D
:1008F000980702FA01FB09FA01F99847002C49D040
:10090000BB0003F1804303F59C339A680BEA0202B3
:10091000914509D02B4A126816424ED19A6822EAB4
:100920000B0242EA09029A60274B2849284A4FEAFB
:10093000481803EB080703F808A001EBCA0A3A615C
:100940000023244ADFF89C80DAE90001C047224BEB
:1009500078607C6100209847C7E90201194B9968CB
:10096000F24311409960D9680A40DA60DA6832438C
:10097000DA609A6832439A605E615C693440FBD108
:100980001A6816431E602846144B9847204603B049
:10099000BDE8F08F0237124B53F827300BEA030300
:1009A0009945F0D1074A136823EA0606064B1660FC
:1009B00003EB4818C8F81440E5E70C24E3E700BF50
:1009C000A9150008003C014080090020380D0020D6
:1009D000800B002000770100FD240008C9150008E5
:1009E000003801402DFB02083F2911DC0B119B024E
:1009F00003F1804303F5003301F00F011869C8408B
:100A000010F001001DBF012300201360106070472B
:100A1000032070473F2910DC0B119B0201F00F00EF
:100A200003F18043012103F50033814089B2012A9B
:100A30000CBF1983598300207047032070473F295A
:100A400004DC032A8CBF002001207047002070477F
:100A50003F2910B50C460FDC511E42F20E7399422D
:100A60000CD8D317002006498847064B03EBC40374
:100A7000C3E90001002010BD052010BD0F2010BDEE
:100A80005D260008380D002037B502AC012344F87C
:100A9000083D0D4620460C4B98473F2D0FDC0B4A76
:100AA00032F81530012B0CD043F0010322F8153039
:100AB00000252046064B9847284603B030BD052543
:100AC000F7E70C25F5E700BFA9150008B40B0020D7
:100AD000C9150008144B1548002230B55A60144A55
:100AE0009A60144ADA60144A9A61144A1A61144AE4
:100AF0005A61144ADA61144A1A62144A5A62144A50
:100B00009A62144ADA62144A1A63144A0260144A56
:100B10004260144A02610024002501221860C0E9E5
:100B200002454261836130BD800B0020380F0020F8
:100B3000890A0008990E00083F0A0008E909000820
:100B4000150A000891080008410E00089D080008D9
:100B5000510A0008C5080008C1080008CB0A0308AC
:100B6000840B0308040000402DE9F341214B02AE41
:100B700001251B680446984746F8085D05FA04F805
:100B800030461D4D1D4B6401984704F118021C4B63
:100B9000295D2A44002098471A4B2F19C3F8148066
:100BA0007B69F3B17B68B3B10020DFF86880C04790
:100BB000D7E90223801A61EB03012A5D124B03EB94
:100BC000C203D3E90023994208BF904209D3002011
:100BD000C047C7E902012B19295D5F699A69186945
:100BE000B8470A4B1B6898473046094B984702B0F4
:100BF000BDE8F081D40F002080090020A91500086D
:100C0000E9090008003C0140380D0020D00F002009
:100C1000C9150008FD2400080020014B184700BF3B
:100C2000690B00080120014B184700BF690B000841
:100C30000220014B184700BF690B00080320014B3D
:100C4000184700BF690B00080420014B184700BF7C
:100C5000690B0008084B70B55C691B68074E1C40A7
:100C6000C4F344140525E30701D52846B0476408BA
:100C700005F10105F7D170BD003C0140690B00088A
:100C8000084B70B55C691B68074E1C40C4F3852493
:100C90000A25E30701D52846B047640805F1010598
:100CA000F7D170BD003C0140690B000800F00F0255
:100CB000930003F00C019308023310B50B4C54F869
:100CC00023400F2300098B408840234098420BD1DA
:100CD000074801210368914023EA01030360054BA3
:100CE00003EB421200235361012010BD0038014084
:100CF000003C0140800900202DE9F04F041100F074
:100D00000F050126A40204F1804405FA06F003272A
:100D1000022A85B004F5003406FA05FB07FA00F74D
:100D200003D0032A14BF002602260DF11008012269
:100D300048F8082D814086401A4A01914046C3F385
:100D4000031A0093904720680199009BFA431040D2
:100D500001432160E1680A401643E660A2684FEA59
:100D60008509ED10174304EB8505A7602A6A0F215A
:100D700009F01C090AFA09FA01FA09F922EA09023A
:100D800042EA0A022A6213F0010F636814BF4BEAB9
:100D9000030323EA0B0363604046034B984705B007
:100DA000BDE8F08FA9150008C915000838B504463C
:100DB0003F2C0846114611DC03F00F02012A0BD02C
:100DC000002A18BF02210246054D2046A8472046AA
:100DD000044B9847002038BD0321F4E7032038BDB9
:100DE000F90C0008AD0C00083F2870B50A4604460F
:100DF0000EDC0146074B084D002098470023204693
:100E00001A460121A8472046044BBDE87040184708
:100E100070BD00BF150A0008F90C0008AD0C0008F1
:100E200070B5002304460A46034D1946A8472046DC
:100E3000024BBDE870401847F90C0008AD0C0008E3
:100E40003F2937B50C4615461CDC032A18D8DFE8C5
:100E500002F0120212120C4B01AA984701994B1E84
:100E6000594259412046094B9847094B43F82450B1
:100E7000002003B030BD11462046064B9847F4E7EA
:100E80000420F6E70520F4E7E9090008E90D000869
:100E9000340C0020210E0008F7B502AD012345F8FF
:100EA000083D0E4607460B4B284698473F2E0EDC62
:100EB000094B002423F81640224631463846074B9A
:100EC00098472846064B9847204603B0F0BD0524B6
:100ED000F7E700BFA9150008B40B0020410E000879
:100EE000C91500082DE9F0410024174F174E25467B
:100EF00027F814502146142200200134B047402C1A
:100F0000F6D1134B134C1D60002213490620A04755
:100F1000002212490720A047002211490820A047BB
:100F2000002210490920A04700220F490A20A047AB
:100F300000220E491720A047234600220C492820F2
:100F4000BDE8F041184700BFB40B0020510A00086B
:100F5000003C014041150008190C0008250C000850
:100F6000310C00083D0C0008490C0008550C000825
:100F7000810C0008012A08D052B97823054A137160
:100F80001B0A537111600020704748F21403F5E703
:100F900004207047780F002010B51F200A4CA0478E
:100FA0002020A047094B0A4A0A4C00201880136CE5
:100FB00023F4001313641921A04710B91821A04786
:100FC00000B1192010BD00BF6D150008005400408D
:100FD00000380240990E000838B5192100201B4C3A
:100FE000A04710B10C24204638BD1821A047044664
:100FF0000028F7D10246164D432302211920A847A5
:101000002246432302211820A847124B12491A6C8A
:10101000124D42F400121A644FF400121A621C625C
:10102000A3F5F23318229A8078229A8319221A841F
:101030004FF480421A8101221A801F202246A847BD
:10104000224607492020A847CDE700BF890A0008AB
:10105000AD0D000800380240E912000841150008F3
:10106000AD1200080F4B1048002230B55A600F4AED
:101070009A600F4ADA600F4A1A610F4A5A610F4AA2
:101080009A610F4ADA610F4A02600F4A42600F4AC2
:1010900002610024002501221860C0E90245426176
:1010A000836130BD580F0020B00F0020D90F000819
:1010B000990F0008750F0008211100088111000820
:1010C000E1110008CB0A0308BB0B03080500004030
:1010D000114A51791379114A03EB0123918B89B29B
:1010E0008B420AD013F4004F4FF000019BB21180E5
:1010F000938314BF082319231384084B01221A80F9
:1011000000229A829A8892B242F440729A8040F207
:1011100001521A80704700BF780F00200054004031
:10112000F8B515461E46124B124C596001221A7032
:101130002A689A6000229A705A70DA6023600E4B17
:101140000E4F98472368987820B94FF47A7200239D
:10115000B847F7E7DB682A68934204D1002232607F
:101160002B600020F8BDFBD2002BF9D00122F6E75E
:10117000800F0020A80F0020D1100008ED240008E7
:10118000F8B515461E46124B124C596000222968CC
:101190001A7099609A705A70DA6023600E4B0F4F84
:1011A00098472368987820B94FF47A720023B8479B
:1011B000F7E7DB682A68934204D1002232602B6093
:1011C0000020F8BDFBD2002BF9D00122F6E700BFCA
:1011D000940F0020A80F0020D1100008ED24000873
:1011E0002DE9F0471E4C1F4DDDF820806160174649
:1011F00000223968A160E2606B60DFF87090D8F877
:101200000030AB600121184B099E2270A270617002
:101210002970AA706A70EA60C9F800409847DFF840
:1012200050A0D9F80030987820B94FF47A72002392
:10123000D047F6E7E26839688A4202D03A60012373
:1012400006E0EA68C8F80020DB689A4202D1002371
:10125000336002E001D9002BF1D10020BDE8F08716
:10126000940F0020800F0020D1100008A80F00204C
:10127000ED2400080B4B1A8B910702D51A889205B2
:101280000AD59A8822F4E0621204120C9A80064B66
:101290001B6801229A7070471A8892B242F4007259
:1012A0001A80EEE700540040A80F0020094B10B54B
:1012B0001B689847084B00229A82084B1B680BB1A9
:1012C00002221A61064B9847064BBDE810401B6886
:1012D000184700BFD40F002000540040A80F002082
:1012E00075120008D00F0020454B2DE9F0411B6816
:1012F000444D9847444A2C68918A2678138B13886A
:10130000A06889B29BB201F00107002E5BD01E4697
:1013100097B101280BD123F480639BB213803B4B20
:10132000394A1B685B00DBB2013313823AE00228C2
:10133000F5D143F40063F1E78F0716D5012809D1F1
:1013400043F400731380304A93889BB243F4806364
:10135000938005E0022825D123F480639BB213809B
:101360002B4BBDE8F0411B6818474B0618D50228E7
:101370000FD146F40076B3B21380E3686168178A30
:10138000CF54E368918A01330138E360A06089B2E9
:10139000EBE70328F1D14F07E2D526F48066EAE7B0
:1013A0000128D0D00028DBD163782BB3164A93886C
:1013B00023F480631B041B0C938040F201531380C1
:1013C000144B2B60CCE72FB1104B1B685B0003F074
:1013D000FE03AAE760B10E060AD5E3686168C95C3E
:1013E0001182918A01330138E360A06089B2F1E78C
:1013F0004B0758BF0130D5E7074B9847B0E700BF10
:10140000D40F0020A80F002000540040780F0020C7
:10141000D00F0020800F00207512000808B5074883
:10142000074B9847074A0023136013715371064A0C
:101430009360D360054A9360D36008BD580F0020C5
:10144000990F0008780F0020800F0020940F0020D3
:10145000104B4FF0FF3210B5C3F88020C3F8842042
:10146000C3F88820C3F88021C3F88421C3F88821F9
:10147000094A0A4BD3630A4B0A4CDC609A605A6AE9
:1014800042F4E0225A62084B1860084B00201960B1
:1014900010BD00BF00E100E0000000204927000867
:1014A00000ED00E00007FA05D40F0020D00F002067
:1014B00000207047EFF3108000F00100704762B623
:1014C000704772B67047EFF3108362B630BF83F394
:1014D000108870470F4B1048002230B55A600F4AF1
:1014E0009A600F4ADA600F4A1A610F4A5A610F4A2E
:1014F0009A610F4ADA610F4A02600F4A42600F4A4E
:1015000002610024002501221860C0E90245426101
:10151000836130BDF80F0020D80F0020511400085F
:10152000B1140008BF140008C3140008C714000851
:10153000B5140008CB0A0308F10B030801000020D2
:101540000346094A103042F8201003F01F025B11D5
:101550009B0003F1604303F56143012000FA02F2AE
:10156000C3F880211A60704700000020421100F08B
:101570001F0320320120034900FA03F341F822300F
:10158000704700BF00E100E00368426893430CBF6E
:10159000012000207047426803681A4203D1EFF32C
:1015A0001083436062B67047EFF31083436072B6F6
:1015B0007047000090E80C0032EA030301D1014BB0
:1015C00018477047A9150008426803681A4200D1FD
:1015D00062B67047014B024ADA60FEE700ED00E0B8
:1015E0000400FA0500207047012910B506D0022931
:1015F00037D0244A136843F004033FE0224B1B68B2
:1016000003B19847214A1F49136943F0040313614A
:101610000B6843F4017343F001030B6030BF1C4BB4
:10162000196841F480311960116921F004011161D8
:101630001A689103FCD51A6842F080721A60144B44
:101640001A689201FCD59A6842F002029A601A6800
:1016500022F001021A600F4B1B688BB1BDE81040ED
:101660001847094B1B6803B19847084A136943F0B0
:1016700004031361034A136843F00603136030BF89
:1016800010BD00BF007000403010002000ED00E0F1
:101690000038024034100020002070470D4B0E48E7
:1016A000002230B55A600D4A9A600D4ADA600D4A40
:1016B0001A610D4A5A610D4A02600D4A42600D4A94
:1016C00002610024002501221860C0E90245426140
:1016D000836130BD181000203810002099160008D2
:1016E000E5150008D5150008E9150008CB0A030820
:1016F0002D0C030802000020426858235343154A6A
:1017000011F0010FD3580CBFFF204FF47F408A0720
:1017100055BF1A8B9A8B03F1180103F11C0192B289
:1017200022EA00020A80198B9A8B0A4392B272B99C
:1017300009490A4A13F4803F18BF0A46C3F38423B9
:101740001168012000FA03F321EA0303136000206B
:10175000704700BF00040020443802404038024077
:1017600042680849582353431A1D14330A440B4452
:10177000002052F8041F013118BF01309A42F8D1FD
:10178000704700BF000400204268582353430A4AB0
:10179000D358DB0302D49FED040B70479FED040B7D
:1017A000704700BFAFF300800000000060E37641A7
:1017B0000000000060E386410004002000000000FB
:1017C0009FED010B704700BF000000000000F03FDC
:1017D0002DE9F04F47683C4D924658233B4A7B43E6
:1017E00002EB030B2DED028BB0EE408AF0EE608A27
:1017F000DBF85090D458364B83B048460E46984795
:1018000053EC182BCDE90001A847324B2F4D9847D8
:10181000DBF85430013B9BB2238509F1FF3381454E
:10182000E36207F10103C84628BF8046022BDFF8B8
:1018300098903ED176BBC4F83480B2000223934026
:10184000228CBAF1000F3BD013439BB223840B23AD
:1018500003FB076305EBC303D3E90C23DDE90001B8
:10186000C8471C4B984740451CBF0123A3825823FF
:1018700003FB07533344002083F818A00B2303FB1A
:10188000076605EBC60585ED0C8B03B0BDEC028B3E
:10189000BDE8F08F012E02D1C4F83880CDE7022ECA
:1018A00002D1C4F83C80C8E7032EC6D1C4F84080FA
:1018B000C3E704F134031FFA88F223F82620BCE7BB
:1018C00092B222EA0303C1E7FDF3020800040020FC
:1018D00011F30208ADF90208F8B5436858225A43DB
:1018E0000D4623498C5816225E1C02FB035302331B
:1018F000002051F823101F4B9847002837D11E4B6A
:101900001E4A14F4803F18BF1A4601211768C4F319
:10191000842301FA03F31F4213D117683B4313607A
:101920008E424FF084032380A18201D0082E08D17B
:10193000B4F844306FEA43436FEA53439BB2A4F8D0
:10194000443004F13403002223F8252015F0010F60
:101950000CBF68214FF4D041AB0755BF238BA38B3D
:1019600004F1180204F11C029BB20B431380F8BD72
:1019700000040020890A0008443802404038024030
:10198000436870B51620114E0C4658225A4300FB8E
:101990000343B118981CB5584B6856F820000C4EFC
:1019A00000210122B047A4002B8C012202FA04F48A
:1019B0001C43A4B22C842B889BB2D9075CBF134371
:1019C000AA824FF0000058BF2B8070BD0004002099
:1019D000AD0D00084368124858225A4370B5855827
:1019E000104E2C8C162202FB03130233890050F890
:1019F0002300012303FA01F1A4B2002324EA010425
:101A00001A4619462C84B04741F211131C4205D1E5
:101A10002B8823F001031B041B0C2B80002070BDBE
:101A200000040020AD0D00082DE9F0431C4A1D4DB7
:101A30001D4CDFF89C90DFF89C80DFF89CC0DFF83D
:101A40009CE01A4F1A4E0021302048432B182A5090
:101A500018481862184844F821305960586201311A
:101A60001648986204291648C3F81C90C3F80880E9
:101A7000C3F80CC0C3F810E05F619E61D862E3D187
:101A8000104B1360104B53600026104B136100275E
:101A9000C2E90267516194610148BDE8F08300BF6B
:101AA000281100206810002058100020D5190008C7
:101AB000D1170008C117000889170008A11B0008EA
:101AC00061170008CB0A0308650C030806000040F4
:101AD000F11C0008D9180008F9160008811900083F
:101AE0002DE9F84F55EC104B07460E46DFF89CB039
:101AF000214BDFF89CA0DFF89C90DFF89C8000224F
:101B000010EE100A2946D84770B122462B4616A17E
:101B1000D1E90001D047194B0022C847C047184BF4
:101B200038603360BDE8F88F0022164B2046294606
:101B3000D84722462B4650B10DA1D1E90001D0472C
:101B40000E4B0022C847C0470F4B3860E9E7002022
:101B50000949D047094B0022C847C0474FF47A7360
:101B60003860DEE7AFF300800000000065CDCD41B6
:101B70000000000080842E4100408F400000E03FC4
:101B800000CA9A3B0000F03F40420F0009F90208EA
:101B900051F6020899F00208ADF9020800000000B1
:101BA0002DE9F04F2DED028B87B006A9D0F804B0D7
:101BB000474D002341F8043D0493582303FB0BF3E6
:101BC000EA1892ED0A8BEC58B0EE480AF0EE680A7B
:101BD000404B04A89847404A4049DDF814900295CC
:101BE00014F480330CBF884690460BF10106DDF8F3
:101BF00010A0B8FBF9F545B15446B5F5803F15D9AD
:101C0000002C33DB6D086400F7E7002B344B354CB8
:101C1000B9FBF4F40CBF302560259A459DBF0AFB43
:101C200005F5B5FBF4F40125BAFBF4F4022E22D03D
:101C3000052E20D0B4F5803F1DD3B5F5004F15D843
:101C40006D006408F6E7029A9DED007B582303FBC4
:101C50000B2B8BED087BCBF85040CBF854509DED0F
:101C6000000B07B0BDEC028BBDE8F08F9FED167B3B
:101C70008DED007BF3E7002CF8D0B8FBF5F31A4AA2
:101C800003921F46B3FBF4F3B9FBF3F8B9FBF8F08A
:101C90009047D045CDE9000107D353EC182BDDE97F
:101CA0000001124EB0470028CDD00134B7FBF4F349
:101CB000B9FBF3F8B8F1000FD8D0B9FBF8F0039BEB
:101CC0009847E6E7AFF30080000000000000000046
:101CD00000040020E11A000800D8B805006CDC02FE
:101CE000AAAAAA0240420F0011F302081DF9020835
:101CF0002DE9F84F43681D4F1D4CD1E90089582547
:101D00005D4307EB050B06468A4642464B46DBE938
:101D10000A01A047044610B10020BDE8F88FCBE9C6
:101D20000A893046134B984705F104098AED000BE8
:101D300005F13008DFF840A0B944B84459F8043F31
:101D4000013305D10134042C08F10808F6D1E3E78A
:101D500063193B4498ED000B1A7E21463046D0476C
:101D60000028EFD00820BDE8F88F00BF0004002055
:101D7000CDF80208A11B0008D117000800000000E0
:101D80002DE9F84F2DED028B9FED1B8B1C4CDFF8DE
:101D900078800026DFF874B004F12C074FEA860A39
:101DA000A146002559F8043F01330ED029465AF8C0
:101DB0000800D847134B5AF8080029469847231FB4
:101DC0002B44002287ED008B1A760135042D07F194
:101DD0000807E7D101360023042E84ED098B84ED3A
:101DE000078BE364236504F15804D3D1BDEC028B67
:101DF000BDE8F88FAFF30080000000000000000095
:101E000004040020F916000858100020D519000815
:101E100010B54468022C09DC054800EB44108361CE
:101E2000029B01614261C361002010BD082010BD0A
:101E3000541100200120704700487047006CDC02FC
:101E40004020704743680B4A70B5D65C0A4A0B4C79
:101E5000D55C0B4A0020D15CA04708B1062070BDBC
:101E60003146A0470028F9D12946A0470028F5D1DE
:101E700070BD00BFEC0C0308EF0C0308890A0008D2
:101E8000F20C03084368094A70B5D65C084A094C4D
:101E9000D55C094A0020D15CA04731460020A0470C
:101EA00029460020A047002070BD00BFEC0C0308AD
:101EB000EF0C0308990E0008F20C030810B5084651
:101EC000144639B112680549054B022A28BF02227F
:101ED0009200984702232360002010BD6005002077
:101EE0000F0003082DE9F0431D4A1E4D1E4CDFF87C
:101EF000A490DFF8A480DFF8A4C0DFF8A4E01B4FB3
:101F00001B4E0021342048432B182A5019481862D0
:101F100019485862194844F82130596098620131D3
:101F20001748D86203291748C3F80890C3F80C80F3
:101F3000C3F810C0C3F814E09F61DE611863E1D1FB
:101F4000114B1360114B53600026114B1361002796
:101F5000C2E90267516194610148BDE8F08300BFA6
:101F600050120020B41100204811002079230008ED
:101F7000A5220008E5230008411E0008351E0008C0
:101F8000391E0008BD1E0008CB0A03089B0C03087D
:101F900007000040451E0008851E0008111E0008AD
:101FA000152300082DE9F843024605280FD8DFE87D
:101FB00000F003096E73787D43494B6C43F4805302
:101FC0004B6404E040490B6C43F480430B643F4C8A
:101FD0003F4B5601A11953F822708B69C969102B28
:101FE00040F6443318BF4FF45173022963D00329DC
:101FF00064D0012901D143F00103A11945F6C05075
:102000004D6942F6E06E4FF47A7195FBF1F5511E81
:1020100001298CBF01467146B1EBC50F84BF090988
:1020200043F02003B1EB450F84BF890843F0100350
:10203000A94288BF43F008039BB23B80254B985CC4
:10204000254B13F80290254B022A13F8028038D151
:1020500040F2522340F26225B8F1360F08BF1D4608
:102060001F4F2B4601220021B84700222B46114664
:1020700048463444B8472B46012200214046B84721
:102080002069184B002198470120BDE8F8830E49CC
:102090000B6C43F4004399E70B494B6C43F400533A
:1020A0008EE709494B6C43F4801389E706494B6C72
:1020B00043F4001384E743F002039EE743F0030375
:1020C0009BE740F25225CBE7003802405411002034
:1020D000D40C0308F20C0308EC0C0308EF0C030803
:1020E000AD0D0008E90D0008F8B5254B53F8203078
:1020F0000446188910F08000FBD1224D188005EBB2
:10210000441501222969204B9847EB691F4D032B89
:102110001F4B1F5D1F4B1E5D1F4B14BF0321022170
:10212000185DA84703213846A84703213046A84731
:10213000052C0FD8DFE804F0030910151A1F174A01
:10214000536C23F48053536404E0144A136C23F457
:10215000804313640120F8BD104A136C23F400433C
:10216000F7E70E4A536C23F40053ECE70B4A536C29
:1021700023F48013E7E7094A536C23F40013E2E7E2
:10218000D40C030854110020150A0008210E000881
:10219000EC0C0308EF0C0308F20C030800380240B3
:1021A000194B1A4953F8202040010B18F0B50E586E
:1021B00099685F68D3F80CE0C1B100233C78A0B205
:1021C000908100200130814214DD8645C8BF3C5C0F
:1021D0001589ED07FCD59589002BADB21FFA84FC5B
:1021E000A2F80CC0A8BFF5540133EBE771464FF0DD
:1021F0000043E3E71189C907FCD59289002B92B20D
:10220000A8BFF2540120F0BDD40C030854110020E3
:10221000224BF0B553F82040214B40011A181D58AD
:102220005668D268034412F0010F99684FEA5202CF
:1022300018BF013211F001034FEA51011FD10029EB
:10224000084604BF4FF0004310463788A78100219D
:102250000131884216DD8A42C8BF36F81170B4F8E1
:1022600008E01EF0010FFAD0B4F80CE0A781002BB3
:102270001FFA8EFEA8BF25F813E00133E8E7481CDB
:102280000023E2E72289D207FCD5A289002B92B273
:10229000A8BF25F813200120F0BD00BFD40C03080F
:1022A000541100202DE9F8434468022C8846174653
:1022B000994602DD0820BDE8F8832046104B984778
:1022C0000028F7D00F4E089B650170191B688360CA
:1022D0003B68C3608369C0F80480102B46F8059002
:1022E00020460BD1084B98470028E3D02046074BE7
:1022F00098470028DED00020BDE8F883044BF2E7C1
:10230000A51F00085411002011220008E920000830
:10231000A1210008F8B54468022C0F46164601DDDD
:102320000820F8BD20460F4B98470028F8D00E4DE6
:10233000326860012B182F509A6000225A60DA60D0
:102340009B69102B20460AD1084B98470028E7D0FC
:102350002046074B98470028E2D00020F8BD054BE7
:10236000F3E700BFA51F0008541100201122000848
:10237000E9200008A12100082DE9F0414468022C61
:102380008846174602DD0820BDE8F0812046104B44
:1023900098470028F7D00F4E3A686501731900205E
:1023A0009860C3F80480DA609B697051102B204656
:1023B0000BD1094B98470028E5D02046074B98479A
:1023C0000028E0D00020BDE8F081054BF2E700BF17
:1023D000A51F00085411002011220008E920000860
:1023E000A121000870B51D46064B049E044698477F
:1023F00030B9324629462046034BBDE870401847A5
:10240000082070BD792300081523000870B5054D1C
:10241000054C2868A0476868A047A8682346BDE81F
:102420007040184748110020851E0008024A034BDF
:1024300002609B1A0B60704700700020F85F01205B
:1024400010B50A4A0A490B480B4CA0470B4A0C49E5
:102450000C48A0470C4B0D4A23F0030300211BB18D
:1024600042F8041F043BFAE710BD00BF0000000063
:10247000C0670020086E030899010008E804000006
:10248000000400201D690308D45E0000E408002059
:102490000420704710B50A24A2FB040104FB0311B9
:1024A00060220023014CA04710BD00BF2DFB020895
:1024B00010B5104619460A220023054CA047602497
:1024C000A0FB042304FB01331046194610BD00BFD6
:1024D0002DFB020800207047034A136823F0010314
:1024E00013600020704700BF10E000E06020A2FBF6
:1024F00000010538004B1847BB0A030873B502AE4C
:10250000012346F8083D144B3046984713480168AC
:10251000826811F4803F22F07F42114902D18B681A
:102520009A4203D322B14368886803449B1A00E0AF
:102530008B688A60D1E90045E41845F10005304612
:10254000084BC1E9004598474FF0FF304FF6FF7147
:102550002040294002B070BDA915000810E000E03D
:10256000C8120020C91500082DE9F74302AE1C4629
:10257000012346F8083D8046124B134F304615465E
:1025800098474046B8476021A5FB012301FB04336F
:10259000002B08BF042A814611D3D41E43F1FF3516
:1025A0004046B847A0EB0900C1178D4208BF8442DE
:1025B000F6D23046054B984703B0BDE8F0830024BF
:1025C0000025EDE7A9150008FD240008C91500083D
:1025D000134B1448002230B55A60134A1A61134A4B
:1025E0009A61134ADA61134A5A61134A1A62134A0A
:1025F0005A62134A9A60134ADA60134ADA62134A3B
:102600009A62134A0260134A4260134A026100242C
:10261000002501221860C0E902454261836130BD96
:1026200078120020A81200209124000895240008A8
:10263000B1240008FD24000895270008C1260008E1
:10264000D5240008D924000869250008ED240008D5
:10265000CB0A0308F50C03080300002010B5034C57
:10266000A2FB040104FB031110BD00BF00770100B1
:102670000A4B6FF07F4200200021C3E900019A60FD
:10268000DA60074B013A5A60064AF02182F82310BB
:1026900000229A6007221A6001207047C8120020A9
:1026A00010E000E000ED00E0034B9860034B0138C0
:1026B000002258609A607047C812002010E000E0C5
:1026C000F7B502AE1D46012346F8083D0746174BF5
:1026D000304614469847164B38469847154BC3E981
:1026E00000454FF6FF739D424FF0FF3208BF944202
:1026F000114B05D16FF07F40D860104B984705E033
:10270000A94208BFA04207D31B69984730460C4B2B
:102710009847002003B0F0BD201AD860094B9842BA
:1027200088BF6FF07F40054BE8E700BFA9150008A0
:10273000FD24000870120020C8120020A9260008FD
:10274000C9150008FEFFFF000C4B10B51B68984729
:102750000B4B002098470B4BD3E90023994208BF4D
:10276000904207D3084B1B699847084BBDE81040BF
:102770001B681847064900208847F6E7D40F002059
:10278000FD24000870120020C8120020D00F002085
:10279000C126000870B50B4D2C690E4684B90A4B52
:1027A0004FF6FF714FF0FF30C3E90001074B984728
:1027B0006FF07F40064BE86098472E61204670BD61
:1027C000082070BDC8120020701200207126000879
:1027D000A9260008002070474368044A4FF44B7054
:1027E00000FB03230020C3F820137047E8120020E9
:1027F0004368044A4FF44B7000FB03230020C3F8E6
:1028000024137047E8120020072070470720704704
:10281000F7B54668012E07464FF0010022DC02ADF5
:10282000114B45F8080D28469847104A4FF44B7352
:1028300003FB06230E4AC3F82873002452F826200F
:10284000C3F80043C3F80443C3F80843C3F80C4378
:10285000C3F81043C3F81443C3F818232846054BA4
:102860009847204603B0F0BDA9150008E8120020E3
:10287000640D0308C91500080A4A38B543684FF4C7
:102880004B7101FB032393F81C234AB1064D1C46F0
:10289000D4F8000328B1012200230020A847F7E75D
:1028A000062038BDE8120020ED24000807207047FC
:1028B00007207047072070470720704707207047A0
:1028C00007207047072070472DE9F34102AD01232F
:1028D00045F8083DD0F80480214B224C28460F468D
:1028E000164698474FF44B7000FB08F0221892F8F8
:1028F0001C1359B33368D2F80C23934226BF00F55A
:102900004370001930463946036833604FF44B7307
:1029100003FB084300243068CA1B90421ED9D3F839
:1029200014231A4492F8002101F8012BD3F8142340
:10293000D3F80C0301320138B2F5007FC3F8142339
:10294000C3F80C03E7D1C3F81443E4E70624284690
:10295000054B9847204602B0BDE8F0810024F6E719
:10296000A9150008E8120020C91500082DE9FF414B
:1029700004AC012344F8083D4568304B304E2046F6
:1029800090460F4698474FF44B7303FB056393F84B
:102990001C23002A4FD0D3F80033D8F80020C3F509
:1029A00080739342019394BF01AB43461B68C8F800
:1029B00000304FF44B7303FB0563D3F80023B2F5EB
:1029C000807F1AD039464FF0000ED8F80020C81B7F
:1029D000824222D9D3F8040311F8012B1A54013092
:1029E000D3F80023B0F5807F02F1010208BF7046E2
:1029F000C3F80023C3F80403E7E7D3F820233AB968
:102A0000002520460F4B9847284604B0BDE8F081CA
:102A10000421D3F828039047F2E7002AF0D04FF4BE
:102A20004B7303FB0565D5F8182393899BB243F0DC
:102A300080039381E4E70625E3E700BFA9150008BA
:102A4000E8120020C91500082DE9F0414468069FEE
:102A5000079D5B48052C5DD1466C46F02006466418
:102A60005848594E00EB5100B0FBF1F14FF44B7058
:102A700000FB046089B2D0F818030181002B5CD000
:102A800040F20C6E40F20C410132012B14BF0B4698
:102A90007346092A53D143F48053012F838153D0C5
:102AA000022F0CBF022300231B03012D03824DD0F4
:102AB00002D3032D40F281800023032C83824348FC
:102AC000434F50F82400B4BF4FF072084FF0820813
:102AD000434600220221B8473E48434601220021D6
:102AE00050F82400B847012D0DD13B480022114673
:102AF000434650F82400B847384843462A46002148
:102B000050F82400B847052C28D8DFE804F022420A
:102B1000464A4E521CB9466C46F010069FE7042CFC
:102B2000D0F840E0D4BF4FF480364FF08076A64016
:102B300046EA0E0606642A4893E70C23A9E7082A0A
:102B4000ABD00120BDE8F0810323ADE74FF4407323
:102B5000B3E7244900222520234B98474FF44B73B9
:102B600003FB0464012384F81C33D4F818339A89D6
:102B700092B242F080029A819A8992B242F0200287
:102B80009A819A8992B242F400529A810020BDE85B
:102B9000F081002215492620DEE700221449272073
:102BA000DAE7002213493420D6E700221249352003
:102BB000D2E7002211494720CEE70420BDE8F0818A
:102BC00000380240006CDC02E8120020840D03088B
:102BD000AD0D00088C0D0308940D03089C0D03082F
:102BE00000366E01752F000841150008A52F00085A
:102BF000D52F000805300008353000086530000882
:102C00002DE9F043244A254D254CDFF8DC90DFF810
:102C1000DC80DFF8DCC0DFF8DCE0224F224E002150
:102C2000502048432B182A502048186220485862E8
:102C3000204898622048D86220481863204858638A
:102C4000204898632048D86320481864204844F8F6
:102C500021305960586401311E48986402291E4889
:102C6000C3F80890C3F80C80C3F810C0C3F814E090
:102C70009F61DE61D864D3D1184B1360184B536049
:102C80000026184B13610027C2E902675161946165
:102C90000148BDE8F08300BFE01900204019002082
:102CA000E0120020C92800086D290008D527000877
:102CB000D9270008F1270008B9280008AD28000826
:102CC000BD280008C1280008C5280008B128000850
:102CD000B5280008092800080D280008CB0A0308B9
:102CE0002C0D03080800004011280008DD2D000805
:102CF000492A0008792800081F4B70B51B68044654
:102D000098471E484FF44B7303FB0403D3F8182372
:102D10009588D3F80C23B2F5007FADB208D1D3F873
:102D200020233AB30221D3F82803BDE870401047AE
:102D3000D3F810134E1C0132B6F5007FC3F80C23F4
:102D400008BF0022C3F81063194408BFC3F810235A
:102D50004FF44B7303FB040481F80051D4F824337F
:102D60001BB10121D4F828039847054BBDE87040FA
:102D70001B68184770BD00BFD40F0020E812002068
:102D8000D00F0020094B4FF44B7202FB0030D0F8FB
:102D90001823938921B19BB243F08003938170473C
:102DA00023F080031B041B0CF8E700BFE81200208F
:102DB000094B4FF44B7202FB0030D0F81823938973
:102DC00021B19BB243F020039381704723F020038D
:102DD0001B041B0CF8E700BFE812002073B502AE1D
:102DE000012346F8083D04462C4B2D4D30469847AC
:102DF00064684FF44B7303FB04530022D3F8183379
:102E00009A81052C07D8DFE804F0032E30323436DF
:102E10002520244B984700212046234B9847234BDD
:102E2000002120469847052C214B26D15A6C22F0D0
:102E300020025A644FF44B7303FB045400253046C0
:102E4000C4F80053C4F80453C4F80853C4F80C532E
:102E5000C4F81053C4F8145384F81C53154B984706
:102E6000284602B070BD2620D3E72720D1E73420C2
:102E7000CFE73520CDE74720CBE71CB95A6C22F0CD
:102E80001002D6E7042C1A6CD4BF4FF480314FF0F7
:102E90008071A14022EA01021A64CBE7A91500085B
:102EA000E81200206D150008B12D0008852D0008DE
:102EB00000380240C915000807B50D4A4FF44B739E
:102EC00003FB0023D3F818339B8A9B050ED5094BCF
:102ED00001AA53F82010084B00209847019810F1E0
:102EE000FF3018BF012003B05DF804FB0120FAE7B2
:102EF000E8120020940D0308E9090008184B70B58A
:102F00001B68044698472046164B9847F8B1164A66
:102F10004FF44B7303FB0423D3F80013E1B1D3F850
:102F20000803451C0139B5F5807FC3F8001308BFBD
:102F30000021C3F80853185C08BFC3F808134FF406
:102F40004B7303FB042283B2D2F818239380074B00
:102F5000BDE870401B6818472046054B9847F6E7C8
:102F6000D40F0020B92E0008E8120020D00F002056
:102F7000852D0008084B10B51C88A4B2A20602D506
:102F80000020064B9847230604D50020044BBDE8DB
:102F90001040184710BD00BF00100140F92C000878
:102FA000FD2E0008084B10B51C88A4B2A20602D55D
:102FB0000120064B9847230604D50120044BBDE8A9
:102FC0001040184710BD00BF00440040F92C000815
:102FD000FD2E0008084B10B51C88A4B2A20602D52D
:102FE0000220064B9847230604D50220044BBDE877
:102FF0001040184710BD00BF00480040F92C0008E1
:10300000FD2E0008084B10B51C88A4B2A20602D5FC
:103010000320064B9847230604D50320044BBDE844
:103020001040184710BD00BF004C0040F92C0008AC
:10303000FD2E0008084B10B51C88A4B2A20602D5CC
:103040000420064B9847230604D50420044BBDE812
:103050001040184710BD00BF00500040F92C000878
:10306000FD2E0008084B10B51C88A4B2A20602D59C
:103070000520064B9847230604D50520044BBDE8E0
:103080001040184710BD00BF00140140F92C000883
:10309000FD2E000870B5044D044C2868A0476868F0
:1030A0002346BDE870401847E0120020DD2D0008DF
:1030B000014B002019607047B01C0020014B00201C
:1030C00019607047B41C002038B5B0F8C05090F8B3
:1030D000A330D0F8BC109D420446A8BF1D462A4626
:1030E000114BD0F89C009847D4F8BC30B4F8C020FD
:1030F00084F8A0502B44C4F8BC3094F8A3309D420F
:1031000008BFB4F8C230A9B20CBF5B1A0023A4F800
:10311000C230B4F8C230521AA4F8C02003B1034B35
:10312000C4F8B83038BD00BF0F000308C93000082C
:1031300008B50248024B9847002008BD94050020BE
:103140000F00030808B50248024B9847002008BD4D
:10315000700500200F00030803290CD8DFE801F0F8
:10316000020D1721144B02F1400152F8040B43F8F1
:10317000040B8A42F9D100207047104B02F1400144
:1031800052F8040B43F8040B8A42F9D1F3E70C4BD5
:1031900002F1400152F8040B43F8040B8A42F9D1C2
:1031A000E9E7084B02F1400152F8040B43F8040B25
:1031B0008A42F9D1DFE700BF3C06002082060020EA
:1031C000B0050020F605002003460022006810B478
:1031D0009A601A605A600C681C600A605A684C68F1
:1031E0005C604A609A688C689C608A6018B1034B86
:1031F0005DF8044B18475DF8044B70476D490008B3
:1032000010B5012304460360014B9847204610BDCA
:10321000A915000837B50C4608B300EB8103DB683D
:10322000FBB1451895F86C30DBB90F4B68469847F1
:10323000610101F1A041D1F8003B002B0BDB95F8B7
:103240005C3043F40023C1F8103BD1F8003B43F05D
:103250000443C1F8003B6846044B9847012003B083
:1032600030BD0020FBE700BF01320008C91500088F
:103270002DE9F347294C2A4BDFF8D4A0DFF8D4809E
:103280004FF49477474381466846984728220021A7
:103290002046D047234B6360002680221A76DE77D3
:1032A000214BA360214BE360214B2361214B6361E0
:1032B000214BA361214B224AE36108EB0705214B17
:1032C00022602362C422204B636231462846D047E5
:1032D00001220421FF234020A5F8AC2085F8B4107A
:1032E00008F8072085F80290AC606B7085F8A300A1
:1032F0002A4631466C180131102982F87C3082F858
:103300007D3084F85C0002F10202F3D168460F4B75
:103310009847012002B0BDE8F08700BFE01A002006
:103320000132000870050020360600207C060020CF
:10333000AA050020F0050020001A0020161A00201F
:1033400094050020481A0020E00D0308C915000864
:1033500059000308881B002030B585B0094B019344
:10336000094B029304AB094A43F8042D084A446808
:10337000156801A902AAA8472046064B98470020D5
:1033800005B030BD001A0020161A0020481A00208F
:10339000B41C00207132000837B50C4B0546684656
:1033A0000C4698470A484FF4947303FB05004568A0
:1033B0002C43A542446003D0064B00201B6898476D
:1033C0006846054B9847284603B030BD01320008D7
:1033D000881B0020B01C0020C915000837B50A4B17
:1033E000044668460D46984708484FF4947303FB1B
:1033F0000400074B446824EA050545606846984781
:10340000204603B030BD00BF01320008881B0020F9
:10341000C91500082DE9F341194B04460D466846CD
:103420001746984735B9D7B96846164B984702B042
:10343000BDE8F081DFF8508004F10C06002556F855
:10344000043B43B1621992F86C2022B91A685A60A1
:1034500029462046C0470135102DF0D1E3E704F19D
:103460000C0304F16C024C3453F8041B19B11078AE
:1034700008B108684860A34202F10102F4D1D3E721
:1034800001320008C91500081532000810B543784C
:1034900090F8A2209A42044618D0052B03D10122AD
:1034A00011460B4B984794F8A230637013B1052B6B
:1034B00005D010BDA4F8C030C4F8B83010BD204607
:1034C00000220121024BBDE81040184710BD00BF8B
:1034D0001534000891F8A23081F82631062381F8CE
:1034E000A2300846004B18478D340008D0F8043845
:1034F00023F00103C0F8043891F8263181F8A23096
:103500000846014B184700BF8D3400082DE9F047ED
:103510004FF0FF334361402343624FF04013836217
:103520000D4691F8B4700023FF244FF080419A1C9F
:10353000BB424FEA821211DA03F1400642F48002E4
:1035400040F8262000EB43120133C2F80849C2F8C4
:10355000084BC2F80019C2F8001BE8E74FF4866375
:1035600003614FF40043C0F80039B5F82441C0F8B6
:10357000003B0023C0F81039DFF8C4C0DFF8C48076
:103580004FF0C043C0F8103BA41005F15D060227C0
:1035900001234FF0011164B314F0030213D096F825
:1035A00000E096F810904EEA8242B9F1000F0FD079
:1035B00048EA835E4EEA020203F1480E4FEA4E1ECD
:1035C000394340F80E200133A4087F000136E2E7BA
:1035D00000EB43194EF4002EC9F810EB03F1580E1E
:1035E0004FEA4E1E42EA0C0240F80E2041EA074123
:1035F000E9E701260923C0F81068C0F814380D4B1C
:10360000C0F81C188361D0F8003823F4FE63C0F8BA
:1036100000384FF0FF312046074B9847032385F8C9
:10362000A230C5F8A86085F8A1402846034BBDE844
:10363000F047184710180C80DD3300088D3400085F
:1036400000800094008000184B8882B00BB10120EC
:103650002AE0CB88022BFAD190F8A220032AF6D0D8
:103660000B7803F00F03012B20D012D3022BEED1E5
:10367000042A8B8801D1002BE9D103F07F038B80D2
:1036800090F8B4209342E2DAD0F8B02002EB430382
:1036900001E000F1AC03C0F8BC300223A0F8C03058
:1036A000054BC0F8B830002002B07047052ACED1D3
:1036B0000DF10603EFE700BFC93000084B887F2BF0
:1036C00010B504461BDC8A88CAB9CA88BAB990F812
:1036D000A220042A13DCDBB280F8A1306BB90323EB
:1036E00084F8A2302046074B98470023A4F8C03046
:1036F000054BC4F8B830032010BD0423F0E70120C7
:1037000010BD00BF8D340008C930000810B54B88CB
:10371000ABB98C889CB9CA88012A10D190F8A21044
:1037200003290CD000F1A403C0F8BC30054BA0F86D
:10373000C020A0F8C220C0F8B830204610BD01203B
:1037400010BD00BFC930000838B58B880446154647
:10375000EBB9CB88DBB990F8A230032B17D04B889C
:10376000012B14DCDBB280F8A43073B9042384F895
:10377000A2302046074B98472DB10023A4F8C03053
:10378000054BC4F8B830052038BD0523EFE701200C
:1037900038BD00BF8D340008C930000870B583689B
:1037A0001748466853F8040B0478022C1BD005D840
:1037B0001CB3012CF6D10129F4D170BD032C15D016
:1037C000FF2CEFD105791478A542EBD145795478D7
:1037D000A542E7D1C5885488A542E3D105899488DC
:1037E000A542DFD170BD34788C42E5E70329D9D1F9
:1037F00054884578E4B2A542DEE72046DDE700BF05
:10380000E01A002010B5CB8804460A460BB101200F
:1038100010BD90F8A230052BF9D10B7813F00F03EF
:103820001BD0022BF3D18B8803F07F038B80002BFE
:10383000EDD090F8B4108B42E9DA51880029E6D136
:10384000D0F8B00030F8131021F0010120F8131067
:10385000938884F8B530042011E04B88012BD6D131
:1038600002210A4B98470028D1D0C37A9B06CED5B7
:10387000B4F8AC3023F00203A4F8AC3006200023E7
:10388000A4F8C030024BC4F8B83010BD9D37000812
:10389000C930000810B5CB8804460A460BB1012098
:1038A00010BD90F8A2100329F9D0137813F00F037C
:1038B00025D0022BF3D10429938801D1002BEED11E
:1038C00003F07F039380002BE9D094F8B4108B426F
:1038D000E5DA51880029E2D1D4F8B00030F81310AD
:1038E00041F0010120F81310938884F8B5300420CA
:1038F0000023A4F8C0300B4BC4F8B83010BD538877
:10390000012BCCD10221084B98470028C7D0C37A9D
:103910009B0605D5B4F8AC3043F00203A4F8AC30F4
:103920000620E5E7C93000089D37000838B5CB8888
:103930004A88A0F8C23004460D4618462BB9A4F8B0
:10394000C030364BC4F8B83038BD94F8A230032BE1
:103950000CDCD4F8A8304BB10023C4F8A83094F89C
:10396000A330984228BF1846A4F8C2000023C4F828
:10397000BC30A4F8C0306B78062B25D1110A02297F
:1039800012D003293BD001291ED12A462046244BC0
:103990009847C8B1031DC4F8BC300379B4F8C220FD
:1039A000934228BF13460DE02A4620461C4B9847F9
:1039B00050B1031DC4F8BC30C288B4F8C230934281
:1039C000A8BF1346A4F8C030D4F8BC3093B92A4637
:1039D000FF212046124B9847E8B100F10A03C4F8D2
:1039E000BC304388B4F8C2200A3B934228BF134638
:1039F000A4F8C030094BC4F8B830002038BD12F02C
:103A0000FF0FC2D1074BC4F8BC30B4F8C230042B4E
:103A100028BF0423D6E7012038BD00BFC930000805
:103A20009D3700086C05002090F8A030D3B1D0F885
:103A30009C104B78092B13D8DFE803F00507120917
:103A4000120B12120D0F084B1847084BFCE7084BDE
:103A5000FAE7084BF8E7084BF6E70122074B18474F
:103A6000074BF1E702207047493600080538000887
:103A700095380008BD3600080D37000849370008A2
:103A80002D39000800EB8101CB6809CB1B1A432BB1
:103A9000D8BF002070470000154B1648002230B5F3
:103AA0005A60154A9A60154ADA60154A1A61154A31
:103AB0005A61154A9A61154ADA61154A1A62154A1D
:103AC0001A63154A5A63154A5A62154A9A62154A88
:103AD000DA62154A0260154A4260154A0261002402
:103AE000002501221860C0E902454261836130BDB2
:103AF000501B0020301B00205933000811420008E1
:103B000079410008593C000845490008AD3D0008CE
:103B1000C9470008B1300008BD3000083131000845
:103B20004531000859310008CB0A0308A40D0308E9
:103B30000900004010B50446006808B1014B9847E1
:103B4000204610BD6D4900082DE9F0434FF49473F1
:103B50003A4C434387B0E65C05460F46002E66D0DC
:103B60000F2968DC364B01A89847942303FB0573A3
:103B700004EB430393F87C90B9F1FF0F18D04A236C
:103B800003FB059304EB8303DB688BB11A685A606F
:103B900000232C4A0393049305930C2009F1FF336F
:103BA00000FB032003A9284B984703A8274B9847FD
:103BB000942303FB05733C3304EB4303FF221A7188
:103BC000234A12F8091021F0010102F8091093F8B4
:103BD0000590B9F1FF0F904618D04A2303FB0593D7
:103BE00004EB8303DB688BB11A685A600023154A23
:103BF0000393049305930C2009F1FF3300FB03208A
:103C000003A9114B984703A8104B9847942303FB33
:103C1000057504EB4505FF2385F87D3018F809305C
:103C200023F0010308F8093001A80A4B98473046F1
:103C300007B0BDE8F0830026F9E700BF881B00202D
:103C400001320008081B0020C9310008353B00087C
:103C500068050020C915000808B54068014B984761
:103C6000002008BD493B0008426838B50B46443186
:103C70008A42044608D0521A064D9010454303D09C
:103C80001846054DA84703466268443A62601846E4
:103C900038BD00BFF1F0F0F0250003082DE9F04F2A
:103CA00087B00F298246914600936FDC384B4FF462
:103CB000947202FB0032019292F8A220052A65D18B
:103CC000942202FB001103EB410191F87C80B8F1D2
:103CD000FF0F5BD04A2606FB008603EB8603DC68F9
:103CE00004B304A82B4B98470024DDF800B00396DA
:103CF0002546009B9C4212D22549039B029101EB71
:103D00008303DB680CCB9B1A432B01DD75B9154689
:103D100065B9012101FA08F150461F4B984704A8E4
:103D20001E4B9847204607B0BDE8F08F029B2E68D7
:103D30004FF4947707FB0A374744484697F84C10EE
:103D4000174B761A5E4528BF5E4604313246294439
:103D5000984797F84C302A683344DBB2934287F88F
:103D60004C30B1443444ABEB060BC2D1029B039AF6
:103D700003EB82030025D86887F84C500168094B93
:103D8000984741460198084B9847B2E70024C9E795
:103D9000881B002001320008DD330008C915000827
:103DA0000F000308693C00081532000838B5406868
:103DB000034D1C461B68A8472060002038BD00BF8B
:103DC0009D3C00082DE9F7434FF494762B4D464374
:103DD000AC190F46B4F8240110B36846284B984735
:103DE0000FB30022114640F2A223264D0B20A84714
:103DF000002240F2A22311460C20A8474FF0A04217
:103E0000D2F8043823F00203C2F80438012384F8FE
:103E1000A23020461C4B984768461C4B984701200F
:103E200003B0BDE8F0834FF0A0421036D2F804385A
:103E3000DFF85C8043F002033544C2F80438012601
:103E4000274697F8B4309E4213DA2B6873B1A31952
:103E500093F86C3053B1DFF83C9001223146204694
:103E6000C04718B128680168C847F6E7013604352D
:103E7000E7E7002387F8A230CBE700BF881B0020CC
:103E800001320008AD0D00088D340008C915000886
:103E9000853A0008693C000873B50546002842D100
:103EA000224A234E536B43F080034FF0A0445363E8
:103EB0006846204B98470223C4F804388023A36047
:103EC0001D4BE3604FF41023A363D4F800381B4963
:103ED00043F00303C4F80038A36B43F400134FF41A
:103EE0007A72A363284600238847154B0121284690
:103EF00098472A4613494320B0472A4611492A20A9
:103F0000B0474FF0FF3363614FF48053A361C4F8AF
:103F10003458A36843F00103A36068460A4B9847EE
:103F2000012002B070BD0020FBE700BF0038024056
:103F30004115000801320008400C004069250008C6
:103F4000C53D000861460008C91500082DE9F04F7D
:103F50004FF49473814E434389B016F803A007468B
:103F6000BAF1000F02D14FF0000AEFE0012AFAD9AE
:103F7000022A40F0E080FF25794800222C4690F983
:103F800000305FFA83FE1EF0010F09D1FF2C0DD126
:103F90001EF0020F00F0DE8043F0010303701446B0
:103FA0000132042A00F10100E9D10DE0FF2D07D113
:103FB0001EF0040F04D043F0010303701546EFE731
:103FC000002CEDD0002DEBD0FF2D05D1FF2CCAD059
:103FD000631E0E2B05D9C6E76B1E0E2BC3D8FF2C14
:103FE000F6D14FF4947909FB07694B461022FF2D57
:103FF00007D093F87C00A842B5D093F87D00A84282
:10400000B1D0FF2C07D093F87C00A042ABD093F83E
:104010007D00A042A7D0013A03F10203E7D194202A
:104020000A6078430B680F2B0EDCC2183C3206EB9B
:10403000420292F804E0BEF1FF0F02D15279FF2A4A
:1040400004D001330B60EDE7102B8CD09420784323
:10405000034406EB4303EAB283F87C200B68184460
:1040600006EB40003F4B80F87D405B68598803F1C8
:1040700016060B440193B9F82431002E59D001994A
:104080008E4256D27178052953D13178072950D103
:10409000B07880283FD164F07F013048B1704FF490
:1040A000947101FB07012144012081F86C00A046B6
:1040B000B8F1000F2CD002932B4B039208F1FF3B79
:1040C0000C2101FB0B3B00210591069107915846FD
:1040D00005A9264B9847264B05A89847DFF87CE0B2
:1040E000029B039A4A2101FB07810EEB8101C1F873
:1040F0000CB0F0784FEA480100F0030088404FF41C
:10410000947101FB07E18844B18888F85C1003438F
:1041100031780E44B1E70028FAD1DFF840E0B27000
:104120004FF4947101FB07E12944A84681F86C0023
:10413000BEE7A9F82431094A4FF4947303FB07231F
:104140005B78FF2B02D138460A4B9847504609B09E
:10415000BDE8F08FFF2D7FF435AF29E7881B0020E5
:1041600068050020E01A0020081B0020C931000863
:10417000353B0008993E000813B5064B40680C46D5
:1041800001A9984720B1019B2360002002B010BD17
:104190000620FBE74D3F000838B50546074C2A20AE
:1041A000A0474320A04700212846054B9847054AD1
:1041B000536B23F080035363012038BD6D15000855
:1041C000C53D00080038024013B50B4B0446684655
:1041D00098472046094B98474FF494736343084A25
:1041E00008490020D054084A002388476846074BF6
:1041F0009847012002B010BD013200089941000823
:10420000881B002069250008A0860100C915000848
:1042100008B54068014B9847002008BDC941000817
:104220002DE9F0410A4FDFF830800A4E00247B6907
:10423000A3420AD90025294620460135C047102D42
:10424000F9D12046B0470134F1E7BDE8F08100BF65
:10425000301B0020C9410008493B00082DE9F84304
:104260004FEA421800EB08031546D3F80829D20795
:1042700048BF012200EB080748BFC3F80829D7F858
:104280000039002B06460C4610DB8DB9D1F8B8304A
:1042900033B108469847D4F89C3094F8A01093BBEB
:1042A000D7F8003943F00063C7F80039BDE8F88358
:1042B00001EB8503DB68002BF2D04B1993F86C906F
:1042C000B9F1000FECD0012229462046144B984743
:1042D0000028E5D00168031DB04441F40022C8F86D
:1042E0001029D7F8002942F00442C7F800296A1CB7
:1042F00006EB02361A46881A1844002805DD52F8E3
:10430000040B3060F7E7A946E6E7B9F1000FCDD01E
:1043100004EB8504034BE06801689847BDE8F88327
:10432000853A0008693C00082DE9F041214B04461C
:1043300008460D4698470228074635D003280FD077
:10434000012815D1D4F8003943F40013C4F800391A
:10435000D4F8003B43F40013C4F8003BBDE8F081FF
:10436000D4F8003895F8A12043EA0213C4F80038C5
:10437000114E002229462046B047052F374617D157
:1043800005F11008012695F8B430B34210DD58F855
:10439000043B3BB1AB1993F86C301BB13246294654
:1043A0002046B8470136EEE70023C5F8B830DFE70E
:1043B000BDE8F081293A00085D42000870B454015C
:1043C0000519D5F8083BDE0744BF0126C5F8086B80
:1043D0001B0742BF03190825C3F8085B82B991F88F
:1043E000A33043F0C04343F40023C0F8103BD0F89F
:1043F000003B43F00443C0F8003B70BC084B184737
:104400001144204491F85C3043F40023C0F8103B81
:10441000D0F8003B43F00443C0F8003B70BC704749
:10442000294300082DE9F84390E81800E41AA31086
:104430001C4C5C4314BF23460123E41807468846FE
:10444000194B01D29C4229D91C4644206043174B8A
:1044500098470646D7F800907D68A5EB09057019C6
:1044600003D044224146124B98470E4AAB105A43A0
:1044700004D02A46494630460E4B984744353544C9
:10448000B9F1000F02D048460B4B9847442303FB79
:1044900004643E607D60BC60BDE8F883002CD4D12C
:1044A0002646D7E7F1F0F0F0C3C3C3035D49000827
:1044B0000F000308250003086D49000838B582681D
:1044C00043689342044608D023B118464422044D61
:1044D000A84703464433636038BD024B984738BD54
:1044E0000F00030825440008F0B500EB810493B0E9
:1044F00005460E46E068084B01A917469847E36851
:104500005C6800233B700121B140A878034B9847B9
:10451000443C204613B0F0BDBD4400089933000868
:1045200073B505461E46084614468AB901F1C40211
:10453000C1F89C2080F8A030013405EB043411460A
:10454000731A1344002B0BDD236841F8043BF7E793
:104550000DF107022146034B9847021D0660EBE769
:1045600002B070BDE94400082DE9F743324B334FE8
:104570001B6804460E4698476846314B9847656964
:1045800015F010080ED0226A02F4B013B3F5802F94
:1045900006D1C2F30A13314602F00F022046B84793
:1045A0006569EDE76A030FD5D4F81878DFF8A890AD
:1045B000BFB24FB1FB0703D5424631462046C8473C
:1045C00008F101087F08F4E7280311D5D4F818781A
:1045D000DFF888903F0C4FF000084FB1F90703D582
:1045E000424631462046C84708F101087F08F4E7F3
:1045F000EA040FD5134B3146204698474FF48053B9
:104600006361114B1B6898476846104B984703B08D
:10461000BDE8F0832B0506D50D4B31462046984763
:104620004FF400636361002DEBDA0A4B31462046FC
:1046300098474FF00043E3E7D40F002021450008DE
:10464000013200080D350008D00F0020C915000800
:10465000D5340008ED3400085D420008BD43000871
:104660000249034B4FF0A040184700BF881B0020B1
:10467000694500082DE9F7430E460446002837D067
:1046800090F8B4308B4233DD04EB86076846194B53
:104690009847FD682DB3A31993F86C500DB3D4F867
:1046A000B03033F81630DB070CD5DFF85C90DFF85C
:1046B0005C80012231462046C84790B1F868016805
:1046C000C047F6E768460C4B984720B121464FF0AB
:1046D000A0400A4B9847324621464FF0A040084B75
:1046E00098476846074B9847284603B0BDE8F083D3
:1046F0000025F9E70132000889150008694500081E
:104700005D420008C9150008853A0008693C0008A8
:104710000F292DE9F04738DC274C4FF4947505FB41
:10472000004595F8A220052A02D00120BDE8F087B7
:10473000942202FB001104EB410191F87D60FF2EF1
:1047400023D04A2202FB0060023004EB8004606840
:1047500078B390E80C009B1A184ADFF868809B1029
:1047600002FB03F91E27636893E80600521A432AE6
:104770000EDD002F0FDC5960D7E7642200230020F4
:104780000F498847013FD146EDE70020BDE8F0879B
:10479000002FCADCEFE731462846C04762680CCAE2
:1047A0009B1A064A9B1002FB03FAD145E5D01E274F
:1047B000E9E7BDE8F08700BF881B0020F1F0F0F0CA
:1047C000ED2400087546000808B54068014B98477D
:1047D000002008BD114700082DE9F04F99B00F29BE
:1047E00080469246019300F39580002B00F0908064
:1047F000002A00F08F80494E4FF4947303FB00634E
:10480000029393F8A230052B40F08480942303FB9D
:10481000001106EB410191F87D70FF2F7AD04FF027
:104820004A0B0BFB007B0BF1020B06EB8B0BDBF84F
:104830000430002B6ED005A8394B98470025DDF8D1
:104840000490CDF80CB02C46039B07A95868354B53
:104850009847039B5B68D3F804B0BBF1440F21D0A9
:104860004FF4947303FB08633B4493F85C504D454D
:1048700028BF4D462DB12A465146ABF140002A4B88
:1048800098474FF4947303FB0863DA19A9EB050901
:1048900092F85C204BF8445CAA42AA442C442ED8DF
:1048A0000025D1E70135642D0BD9019A4A4501D184
:1048B0001A685A6005A81D4B9847204619B0BDE8F4
:1048C000F08F05A81A4B984783460028F2D14FF481
:1048D000947303FB086393F8A230052BEAD13946A1
:1048E0000298144B984705A8134B98475846322214
:1048F00000231249884705A8114B9847A4E793F86D
:10490000A230052BD6D1394602980A4B9847D1E7F9
:10491000019CD2E74FF0FF34CFE700BF881B002097
:1049200001320008BD4400080F000308C915000843
:10493000891500087546000897150008ED24000841
:10494000B515000838B54068034D1C461B68A847DC
:104950002060002038BD00BFD9470008004B184731
:104960001D4A0008004B18471D4A0008004B184715
:10497000B9490008004B1847B94900080148024BE3
:10498000011D1847BC1C0020614A0008074B5B68EA
:104990005BB150B110F8183C202B02D00120044B21
:1049A000184701211838034B18477047BC1C0020DA
:1049B000494A000845700008004B18478D49000817
:1049C000114B37B55C680546B4B902A90F4B41F8E5
:1049D000044D684600949847019B9D4205D90120EB
:1049E0000B4B9847204603B030BD0A4B00981C681B
:1049F00025441D602044F6E741F00401064B98472A
:104A00000028F0D01830EEE7BC1C0020614A0008F6
:104A1000494A0008B81C0020DD6F00080021014B46
:104A2000184700BFC149000838B5054B05469847EF
:104A3000044618B12A460021024B9847204638BD4B
:104A4000C14900085900030882B000230193019B6B
:104A50001BB9019B019A1344F8E702B070470000AC
:104A6000034B1A685B68026004339B1A0B60704743
:104A7000CC06002007B5002301933223ADF80430A3
:104A800001238DF807300198034B98470348044BE6
:104A900003B05DF804EB1847096E0008E40D030845
:104AA000195C00082DE9F04305460D480D4B0468DC
:104AB0000679477990F8068090F8079085B02046EF
:104AC000984701940290CDF80090284643463A4614
:104AD0003146054CA047012005B0BDE8F08300BF7A
:104AE000C4060020ED590008919B000837B5CDE9B8
:104AF0000023134B05460C469847E0B9EDB1E4B1ED
:104B0000104B11491D60114B1C60DDE90023C1E908
:104B100000230F4B9DF800205D620E4B1A719DF82B
:104B200001205A719DF802209A719DF803201C60A3
:104B3000DA7103B030BD0820FBE70220F9E700BFBF
:104B40005D5D0008C41C0020C81C0020D01C002093
:104B5000CC060020C406002070B5ADF5007D1346DC
:104B600005460A46194C4FF400716846A04705F403
:104B70007F43B3F5A06F044616D0B3F5C06F09D0DC
:104B80000246002328466946114DA84720460DF5E8
:104B9000007D70BD0F4B1B68002BF7D000220DF875
:104BA000002068469847F1E70B4B98470B49C369CB
:104BB000984706460028E9D00025A542E6DAB36901
:104BC0006946304698470135F7E700BF59040308A6
:104BD000B5890008D41C0020AD8F000803000040F8
:104BE0002DE9F84FD1E90067344B354CDFF8DCB0E4
:104BF000814688463046924639460022A047D8472B
:104C000004460D4630463946D8472E4E0A22002328
:104C1000B047052A73F10003B34627DB013445F1A1
:104C2000000526462F460A22002330463946D8473B
:104C3000134317D1012E77F1000317DB30463946B5
:104C40000A220023D847002908BF012806460F463C
:104C5000E9D1DAF80030002B22D007DD013BCAF899
:104C6000003003E0002F08BF012EF2D00A220023FB
:104C700020462946D847134309D100232046294618
:104C80000A22D84704460D4654EA0503EED12046D1
:104C900029460D4B9847C8E900010020BDE8F88F70
:104CA000D9E90023013243F10003C9E900230022BE
:104CB0000023C8E900230120BDE8F88F000024404C
:104CC00051F602088DFA0208A1F302085DFB020802
:104CD0002DE9F04F99460C46034685B02343CDE9B4
:104CE0000001934654D02D4F012400250A260029A7
:104CF00008BF0A2808D300230A22B84706FB05F399
:104D0000A4FB06451D44F2E7D9F8003003939B4508
:104D10003EDADFF88880012600274FF0000AD345ED
:104D20000FDD0A22002320462946C0470A230A2213
:104D30007B43A6FB026704460D460AF1010A1F44A5
:104D4000EDE722462B46DDE90001C0470A22002399
:104D500004460D46C047002B08BF052A02D30A347B
:104D600045F100050A21A6FB012301FB07339D4203
:104D700008BF944205D303990131C9F800101446C5
:104D80001D460A22002320462946C047CDE90001DE
:104D9000DDE9000105B0BDE8F08F00BF2DFB020882
:104DA0002DE9F041904606461A460F465C1E00214A
:104DB00040460D4B0D4D984756EA070310D030463C
:104DC00039460A220023A847013C303208F8042063
:104DD000304639460A220023A84706460F46EBE72D
:104DE0002046BDE8F08100BF590003082DFB0208F2
:104DF0000CB413B504AB054C53F8042B0193A04736
:104E000002B0BDE8104002B0704700BF590403086B
:104E10002DE9F04FA1B01F469DF8AC809DF8B03051
:104E200003900125B8F1470F049116462A9C01937F
:104E3000069509D0A8F167014B424B41B8F1580FD4
:104E4000059302D1029505E00595A8F17802534239
:104E5000534102939B4B6322002107A89847029B72
:104E60002BBB019B33B1002E77F1000322DA76428F
:104E700067EB4707304639464FF0010900234FF0F2
:104E8000010A4FF0000B002908BF0A284A4609F121
:104E9000010911D30A2200238B4DA8470A230A22B5
:104EA00003FB0BF3AAFB02AB9B440123EBE70023BC
:104EB0000193DFE7029BFBE703B10692059B002B02
:104EC00000F09480069DB8F1470F0CBF4523652381
:104ED000A54205931EDCDFF8F08100240DF11C09CA
:104EE000AC4266DA52465B4630463946C0473030FF
:104EF00004F8090052465B4630463946C0475046E2
:104F0000594616461F460A220023C04701348246EE
:104F10008B46E5E7304639466C4DDFF8AC8106AB91
:104F20002246A847012681468A4600270A250029ED
:104F300008BF0A2845D200254FF02E0BAC4238DDC1
:104F400020ABEB183246029348463B46514605F1EA
:104F500001085D4DA847029B303003F8640C3246CF
:104F60003B4648465146A847304691469A46394600
:104F700000230A22A84759EA0A0306460F4629D108
:104F800020AB9844029A9DF8143008F8643C2B2317
:104F900002F8623C069B029C5A1E0A2192FBF1F326
:104FA00003F1300001FB1323303304F8610C04F8E3
:104FB000603C07AB464A47490198002818BF0A469B
:104FC00065E000230A22C04705FB07F3A6FB05673F
:104FD0001F44ACE74445D3D0B8F1010F04D18DF89C
:104FE0001DB001344FF002084546A7E7029BE3B924
:104FF000DFF8D4A062250DF11C09002F08BF0A2E8E
:1050000005F1FF334AD31D46304639460A220023B4
:10501000D047303209F80520304639460A220023AD
:10502000D047013C06460F46E7E7B8F1580F0CBFE2
:1050300046206620002C08BF0124622107AB0F38F0
:1050400056EA070208D1081B224618443025002AD8
:1050500017DD013A8554FAE706F00F02092A88BFE6
:10506000121801F1FF3194BF3032D2B25A543209D2
:1050700042EA07723D09002C16462F46E0DD013C4E
:10508000DEE7002CACBF0C1B0C46114A23440499EC
:105090000398114CA04721B0BDE8F08F20AA1A4414
:1050A000303602F8646C641B3022E118002906DDFA
:1050B000B8F1440F03D1013B09F80320F5E74B4455
:1050C00078E700BF590003082DFB0208D14C000807
:1050D000F80D0308F70D0308F14D0008000000006B
:1050E0002DE9F04FC5B0A24B0590901C5BEC10ABC6
:1050F0001646069198479F4C0790632230212BA8B3
:10510000A0476322302112A8A047504600287BF117
:1051100000034FF00002B8BF0BF100438DF8AC2044
:105120008DF84820BFBF52469B4692460123B4BF2C
:1051300004930492904F50465946B847731C044656
:105140000D46073613F8012F472A00F0C283672A5D
:1051500000F0EB839E42F5D1884E894B00225046E9
:105160005946B0470646002828D1864BDFF82C92D6
:10517000CDE90E452046294698470B46024659463A
:105180005046C847079B0D9682468B46CDE910AB2B
:10519000002B40F0DD8200227B4B7C4CA0470DAA07
:1051A000CDE910017A4B10A90EA89847794A7A499F
:1051B00004980E9B002818BF0A465CE065230993FB
:1051C000DFF8FC91704DDFF8FC81002600242246B8
:1051D0002B4650465946C84740B15046594622468C
:1051E0002B46C047013682468B46F0E7504659466B
:1051F000B847644B694C6A4F984702460B46504685
:105200005946A0470022002304460D46B84710B176
:1052100005F100431D4650A3D3E90023204629464B
:105220005A4CA0475F4B604C984712AA6323A04793
:10523000594604465D4B50469847099B019312AB73
:105240001C44009403460296594A06990598594C05
:10525000A04745B0BDE8F08F079B9C4210DA4D4A4D
:10526000049B4D4C5046002B08BF144659464F4BEB
:10527000984722460346069905984E4CA047E8E712
:1052800037A3D3E9002350465946454D4FF001045A
:10529000A84700B90446E3B20A93002B00F0D3807C
:1052A0003F4D454F394CD046D94600260022434B4E
:1052B00040464946A847002800F0C8800022002345
:1052C00040464946B847002840F0C080404649461D
:1052D00000222D4BA047013680468946E6E7079B12
:1052E000089A284F9A42244B02DA032E40F3448155
:1052F000404649469847CDE90E01B847274C02463B
:105300000B4640464946A04780468946CDE910896C
:10531000002401220D94274623460B920B9A0799ED
:105320008A4251DA10A3D3E90023404649461C4D76
:10533000A84708B101370124134B144D4046494694
:105340000022A8470B9B01330B938046894601231B
:10535000E4E700BFAFF3008000A0D8855734764360
:105360002D431CEBE2361A3F9A9999999999B93FC6
:10537000C3FE0208590003085DFB02081DF902087C
:105380000000E043A1F3020800002440FDF30208FE
:10539000E14B00084D0E0308FB0D030895F00208D1
:1053A000E1F802088DFB0208A14D00085DF9020832
:1053B000450E0308F14D0008CDF802080000F03F4B
:1053C00009F9020851F602080BB1CDE9108904B1C0
:1053D0000D97DDE910890D9C00270B948EA3D3E96E
:1053E0000023404649468E4DA847002850D0002251
:1053F0000023404649468B4D0134A84700283DD044
:105400000FB10B9B0D930022874B884C40464946B9
:10541000A047874BCDE910010DAA10A90EA8984707
:105420000A9B002B38D00E9B0A2B35D100227E4BD5
:1054300050465946A04776A3D3E900237D4CA047A8
:1054400050B300230A93D046D946002600237A4F52
:105450000893784C744B002240464946A0470446C6
:1054600000283FF43CAF704B404649460022B84705
:10547000089B0133804689460893EAE7404649463F
:105480000022694B694DA847012780468946A4E759
:10549000002FB8D00D94B6E7DDE910890022002373
:1054A000404649465F4CA047002838D10D9B622BEF
:1054B000C4BF62230D930D9F604B2BAC3A46302145
:1054C0002046984744AB1F44002307F8643C4046FD
:1054D0005B4B5C4F49469847632312AAB8475A4F23
:1054E0008EB1099B029312AB1844584A0E9B58493F
:1054F0000396019000940498002818BF0A46069964
:105500000598B847A5E6089B0393099B029312AB45
:105510001844019000940E9B4E4A4F49EBE7DDE999
:105520000E014E4C00230A2871F1000209DB0A2209
:105530000023A04706B1013E089B013308930123D5
:10554000F1E70BB1CDE90E013F4C6EB1099B444A26
:1055500044490093019603460498002818BF0A4660
:1055600006990598A04774E6089B0193099B009350
:105570003D4A3E490346EFE7504659469847804624
:105580008946CDE90E89B847394E0B460246594641
:105590005046B047B8F1010F06460F4679F10003B7
:1055A000CDE910670D94C0F28480079B089ADFF85C
:1055B00074B0DFF86CA09D1A013DA046A146002DF5
:1055C0005ADCB9F1000F01D0CDE910670CB1CDF86C
:1055D0003480DDE910010022134B144C114EA0471A
:1055E0000DAACDE91001124B10A90EA89847DDE9CC
:1055F00010450022002320462946B04700287FD0CE
:10560000DDE90E011B4B984782468B467DE100BFCA
:105610002D431CEBE2361A3F9A9999999999B93F13
:10562000E1F80208CDF8020800002440FDF302086A
:10563000E14B000809F9020851F602085900030875
:105640008DFB0208A14D0008F14D0008000E030873
:10565000FF0D0308100E03080F0E03088DFA020851
:10566000200E03081F0E03082B0E03082A0E030842
:1056700095F00208A1F302080022002330463946C3
:10568000D84700289DD1AAA3D3E900233046394644
:10569000D04710B108F10108012430463946A64E22
:1056A000A64B0022B047013D06460F464FF00109C8
:1056B00085E7079DDFF8B4A2DFF8A8B2A046A146AF
:1056C0000022002330463946D04700287FF479AFC6
:1056D00097A3D3E9002330463946D84718B108F1DB
:1056E00001080135012430463946934E934B002280
:1056F000B047013D06460F464FF00109E0D163E790
:105700000D9B622BC4BF62230D930D9E8C4B2BAF60
:10571000324630213846984744AB1E44002306F8F1
:10572000643C2046874B884C29469847632312AA3D
:10573000A04712AB184485490190854A0498009708
:10574000002818BF0A460E9B06990598814C09E768
:10575000DFF8188200220023C047D8B1079F784C99
:10576000622FA8BF62272BAB3A4630211846A047CC
:1057700044AA1744002207F8642C00900498764944
:10578000764A0E9B734C002818BF0A460699059866
:10579000A0475EE5724B089004460546064609930D
:1057A000079B089A9A4219DA61A3D3E9002350466D
:1057B00059466C4FB84708B1013501246A4B504631
:1057C00059469847099B984702460B46504659460A
:1057D000C84700220023C047002845D00EB1CDE9BC
:1057E00010AB04B10D95DDE910010022534B524C72
:1057F0005E4EA0470DAACDE910015D4B10A90EA881
:105800009847DDE910450022002320462946B0478D
:1058100080460028A2D1079F494B0D9EDFF860A16A
:10582000622FA8BF62270DF1AC093A4630214846E5
:10583000984744AB1F44204607F8648C29464A4BDE
:10584000984701240746884600254FF00A0B0A288E
:1058500071F1000315DB00230A22D0470BFB05F38F
:10586000A4FB0B451D44F2E7344B334E50465946DA
:105870000022B047089B013382468B4608930126DD
:105880008EE7DFF8FCB04E440A2C75F100031CDBF8
:1058900022462B4638464146D847303030702246A3
:1058A0002B4638464146D04720462946174698465B
:1058B0000A220023D04704460D4654EA050306F1A8
:1058C0000106E1D1CDF8009058E707F130033370BD
:1058D000E5E7452309930022264B274E50465946BB
:1058E000B04700287FF46CAC20461D4B234C294662
:1058F000984702460B4650465946A04700220023CF
:105900001A4CA04700283FF4BBAC50465946164BF2
:105910001B4D984700240A2871F10003FFF69CAC48
:105920000A220023A8470134F5E76523D2E700BF28
:105930009A9999999999B93FFDF30208000024407A
:10594000590003088DFB0208A14D0008350E03081D
:10595000360E0308F14D00083E0E03083F0E030803
:10596000A1F30208E1F802085DFB0208CDF8020885
:10597000E14B00080000E0431DF9020895F0020821
:105980008DFA020870B5084B044610EE100A0D4659
:1059900016469847324641EC100B044B29462046E8
:1059A000BDE87040184700BF55F30208E1500008F9
:1059B00010B4024CA4465DF8044B60475904030838
:1059C00038B50C46114638B131B12CB15D1CAC4232
:1059D0004FF0000402D20470012038BDC4541A46AE
:1059E000014B9847204638BDA9020308034613F827
:1059F000012B002AFBD1181A0138704738B50D4623
:105A00000446114660B15AB155B11046054B98474E
:105A10000130854204D32046034B9847002038BD0F
:105A2000012038BDED5900089902030810B510F89F
:105A3000013BA3F14102192A0AD911F8012BA2F165
:105A40004104192C06D90BB19342F0D0981A10BD1D
:105A50002033F2E72032F6E770B5064B044698474C
:105A6000256AA36A22460146AC46606ABDE87040DA
:105A7000604700BFAD8F00082DE9F84F91460E46F4
:105A800001B3114B1B78EBB1104BDFF844B0DFF8DA
:105A900044A093E82001A84514D055F8044B23698D
:105AA0004B45F8D16068D8473146074602466068E2
:105AB000D0470028EFD1F35D0BB15C2BEBD1204632
:105AC000BDE8F88F0024FAE7EC1C0020FC1D002044
:105AD000ED590008F1FF02080846014B184700BFC6
